{
    "txid": "42981f51626b7cc740de288d3fd656bfb8ab021e71f1d1df3d9b9f42871c70b3",
    "hash": "063d9a8ff010076c836927c74351ea150ebe4f199340b40c2244a21444d2686c",
    "version": 2,
    "size": 257,
    "vsize": 176,
    "weight": 701,
    "locktime": 830873,
    "vin": [
        {
            "txid": "3f63c3d1e831c405bf2e6f452df50aee1a1b8323c417b75ccdb25dbb188b0ee1",
            "vout": 1,
            "scriptSig": {
                "asm": "",
                "hex": ""
            },
            "txinwitness": [
                "3044022036ef9cbc978cb7f9c3848d54e421254fda73f0e72ec8eb663fde23d0b88aa9400220205b7cc4e781928ff2716d4e5c7e05d58e3374df6e1b9ef27368cda8570267e401",
                "02288b8058e52573b4cc620e7a10c92c4e36a23b5ecb306bd1268366c8413d4ef2"
            ],
            "sequence": 4294967294
        }
    ],
    "vout": [
        {
            "value": 0.01420823,
            "n": 0,
            "scriptPubKey": {
                "asm": "0 95cd0e1e73138b7cf7f8016fda9e2589a9e38a9c",
                "desc": "addr(bc1qjhxsu8nnzw9healcq9ha48393x578z5u8q58sj)#4rtyetg7",
                "hex": "001495cd0e1e73138b7cf7f8016fda9e2589a9e38a9c",
                "address": "bc1qjhxsu8nnzw9healcq9ha48393x578z5u8q58sj",
                "type": "witness_v0_keyhash"
            }
        },
        {
            "value": 0.00073003,
            "n": 1,
            "scriptPubKey": {
                "asm": "OP_HASH160 c1eb97cb19ee7251ac46bc5833117390247d437f OP_EQUAL",
                "desc": "addr(3KNNZrMFomTdvZF3WbLywgLTTRJjKvnBiN)#4gtk6sd9",
                "hex": "a914c1eb97cb19ee7251ac46bc5833117390247d437f87",
                "address": "3KNNZrMFomTdvZF3WbLywgLTTRJjKvnBiN",
                "type": "scripthash"
            }
        },
        {
            "value": 0.00595189,
            "n": 2,
            "scriptPubKey": {
                "asm": "OP_DUP OP_HASH160 4fb98ce3d045102f01dd587194deb8f740b7b833 OP_EQUALVERIFY OP_CHECKSIG",
                "desc": "addr(18GYfRJaVPfPNYWipfYngRkZzHvm3FgtQB)#h8v53u63",
                "hex": "76a9144fb98ce3d045102f01dd587194deb8f740b7b83388ac",
                "address": "18GYfRJaVPfPNYWipfYngRkZzHvm3FgtQB",
                "type": "pubkeyhash"
            }
        }
    ],
    "hex": "02000000000101e10e8b18bb5db2cd5cb717c423831b1aee0af52d456f2ebf05c431e8d1c3633f0100000000feffffff0317ae15000000000016001495cd0e1e73138b7cf7f8016fda9e2589a9e38a9c2b1d01000000000017a914c1eb97cb19ee7251ac46bc5833117390247d437f87f5140900000000001976a9144fb98ce3d045102f01dd587194deb8f740b7b83388ac02473044022036ef9cbc978cb7f9c3848d54e421254fda73f0e72ec8eb663fde23d0b88aa9400220205b7cc4e781928ff2716d4e5c7e05d58e3374df6e1b9ef27368cda8570267e4012102288b8058e52573b4cc620e7a10c92c4e36a23b5ecb306bd1268366c8413d4ef299ad0c00",
    "blockhash": "000000000000000000035eda418aacd4e7f8de5252b7ec77be73b1605d673d63",
   